{
  "contractName": "NFTMarketplace",
  "abi": [
    {
      "inputs": [],
      "stateMutability": "nonpayable",
      "type": "constructor"
    },
    {
      "anonymous": false,
      "inputs": [
        {
          "indexed": true,
          "internalType": "address",
          "name": "owner",
          "type": "address"
        },
        {
          "indexed": true,
          "internalType": "address",
          "name": "approved",
          "type": "address"
        },
        {
          "indexed": true,
          "internalType": "uint256",
          "name": "tokenId",
          "type": "uint256"
        }
      ],
      "name": "Approval",
      "type": "event"
    },
    {
      "anonymous": false,
      "inputs": [
        {
          "indexed": true,
          "internalType": "address",
          "name": "owner",
          "type": "address"
        },
        {
          "indexed": true,
          "internalType": "address",
          "name": "operator",
          "type": "address"
        },
        {
          "indexed": false,
          "internalType": "bool",
          "name": "approved",
          "type": "bool"
        }
      ],
      "name": "ApprovalForAll",
      "type": "event"
    },
    {
      "anonymous": false,
      "inputs": [
        {
          "indexed": true,
          "internalType": "uint256",
          "name": "tokenId",
          "type": "uint256"
        },
        {
          "indexed": false,
          "internalType": "address",
          "name": "seller",
          "type": "address"
        },
        {
          "indexed": false,
          "internalType": "address",
          "name": "owner",
          "type": "address"
        },
        {
          "indexed": false,
          "internalType": "uint256",
          "name": "price",
          "type": "uint256"
        },
        {
          "indexed": false,
          "internalType": "bool",
          "name": "sold",
          "type": "bool"
        },
        {
          "indexed": false,
          "internalType": "bytes32",
          "name": "hash",
          "type": "bytes32"
        }
      ],
      "name": "MarketItemCreated",
      "type": "event"
    },
    {
      "anonymous": false,
      "inputs": [
        {
          "indexed": true,
          "internalType": "address",
          "name": "from",
          "type": "address"
        },
        {
          "indexed": true,
          "internalType": "address",
          "name": "to",
          "type": "address"
        },
        {
          "indexed": true,
          "internalType": "uint256",
          "name": "tokenId",
          "type": "uint256"
        }
      ],
      "name": "Transfer",
      "type": "event"
    },
    {
      "inputs": [
        {
          "internalType": "address",
          "name": "to",
          "type": "address"
        },
        {
          "internalType": "uint256",
          "name": "tokenId",
          "type": "uint256"
        }
      ],
      "name": "approve",
      "outputs": [],
      "stateMutability": "nonpayable",
      "type": "function"
    },
    {
      "inputs": [
        {
          "internalType": "address",
          "name": "owner",
          "type": "address"
        }
      ],
      "name": "balanceOf",
      "outputs": [
        {
          "internalType": "uint256",
          "name": "",
          "type": "uint256"
        }
      ],
      "stateMutability": "view",
      "type": "function",
      "constant": true
    },
    {
      "inputs": [
        {
          "internalType": "uint256",
          "name": "tokenId",
          "type": "uint256"
        }
      ],
      "name": "getApproved",
      "outputs": [
        {
          "internalType": "address",
          "name": "",
          "type": "address"
        }
      ],
      "stateMutability": "view",
      "type": "function",
      "constant": true
    },
    {
      "inputs": [
        {
          "internalType": "address",
          "name": "owner",
          "type": "address"
        },
        {
          "internalType": "address",
          "name": "operator",
          "type": "address"
        }
      ],
      "name": "isApprovedForAll",
      "outputs": [
        {
          "internalType": "bool",
          "name": "",
          "type": "bool"
        }
      ],
      "stateMutability": "view",
      "type": "function",
      "constant": true
    },
    {
      "inputs": [],
      "name": "name",
      "outputs": [
        {
          "internalType": "string",
          "name": "",
          "type": "string"
        }
      ],
      "stateMutability": "view",
      "type": "function",
      "constant": true
    },
    {
      "inputs": [
        {
          "internalType": "uint256",
          "name": "tokenId",
          "type": "uint256"
        }
      ],
      "name": "ownerOf",
      "outputs": [
        {
          "internalType": "address",
          "name": "",
          "type": "address"
        }
      ],
      "stateMutability": "view",
      "type": "function",
      "constant": true
    },
    {
      "inputs": [
        {
          "internalType": "address",
          "name": "from",
          "type": "address"
        },
        {
          "internalType": "address",
          "name": "to",
          "type": "address"
        },
        {
          "internalType": "uint256",
          "name": "tokenId",
          "type": "uint256"
        }
      ],
      "name": "safeTransferFrom",
      "outputs": [],
      "stateMutability": "nonpayable",
      "type": "function"
    },
    {
      "inputs": [
        {
          "internalType": "address",
          "name": "from",
          "type": "address"
        },
        {
          "internalType": "address",
          "name": "to",
          "type": "address"
        },
        {
          "internalType": "uint256",
          "name": "tokenId",
          "type": "uint256"
        },
        {
          "internalType": "bytes",
          "name": "data",
          "type": "bytes"
        }
      ],
      "name": "safeTransferFrom",
      "outputs": [],
      "stateMutability": "nonpayable",
      "type": "function"
    },
    {
      "inputs": [
        {
          "internalType": "address",
          "name": "operator",
          "type": "address"
        },
        {
          "internalType": "bool",
          "name": "approved",
          "type": "bool"
        }
      ],
      "name": "setApprovalForAll",
      "outputs": [],
      "stateMutability": "nonpayable",
      "type": "function"
    },
    {
      "inputs": [
        {
          "internalType": "bytes4",
          "name": "interfaceId",
          "type": "bytes4"
        }
      ],
      "name": "supportsInterface",
      "outputs": [
        {
          "internalType": "bool",
          "name": "",
          "type": "bool"
        }
      ],
      "stateMutability": "view",
      "type": "function",
      "constant": true
    },
    {
      "inputs": [],
      "name": "symbol",
      "outputs": [
        {
          "internalType": "string",
          "name": "",
          "type": "string"
        }
      ],
      "stateMutability": "view",
      "type": "function",
      "constant": true
    },
    {
      "inputs": [
        {
          "internalType": "uint256",
          "name": "tokenId",
          "type": "uint256"
        }
      ],
      "name": "tokenURI",
      "outputs": [
        {
          "internalType": "string",
          "name": "",
          "type": "string"
        }
      ],
      "stateMutability": "view",
      "type": "function",
      "constant": true
    },
    {
      "inputs": [
        {
          "internalType": "address",
          "name": "from",
          "type": "address"
        },
        {
          "internalType": "address",
          "name": "to",
          "type": "address"
        },
        {
          "internalType": "uint256",
          "name": "tokenId",
          "type": "uint256"
        }
      ],
      "name": "transferFrom",
      "outputs": [],
      "stateMutability": "nonpayable",
      "type": "function"
    },
    {
      "inputs": [
        {
          "internalType": "uint256",
          "name": "_listingPrice",
          "type": "uint256"
        }
      ],
      "name": "updateListingPrice",
      "outputs": [],
      "stateMutability": "payable",
      "type": "function",
      "payable": true
    },
    {
      "inputs": [],
      "name": "getListingPrice",
      "outputs": [
        {
          "internalType": "uint256",
          "name": "",
          "type": "uint256"
        }
      ],
      "stateMutability": "view",
      "type": "function",
      "constant": true
    },
    {
      "inputs": [
        {
          "internalType": "string",
          "name": "tokenURI",
          "type": "string"
        },
        {
          "internalType": "uint256",
          "name": "price",
          "type": "uint256"
        },
        {
          "internalType": "bytes32",
          "name": "hash",
          "type": "bytes32"
        }
      ],
      "name": "createToken",
      "outputs": [
        {
          "internalType": "uint256",
          "name": "",
          "type": "uint256"
        }
      ],
      "stateMutability": "payable",
      "type": "function",
      "payable": true
    },
    {
      "inputs": [
        {
          "internalType": "bytes32",
          "name": "hash",
          "type": "bytes32"
        }
      ],
      "name": "isHashRegistered",
      "outputs": [
        {
          "internalType": "bool",
          "name": "",
          "type": "bool"
        }
      ],
      "stateMutability": "view",
      "type": "function",
      "constant": true
    },
    {
      "inputs": [
        {
          "internalType": "uint256",
          "name": "tokenId",
          "type": "uint256"
        },
        {
          "internalType": "uint256",
          "name": "price",
          "type": "uint256"
        }
      ],
      "name": "resellToken",
      "outputs": [],
      "stateMutability": "payable",
      "type": "function",
      "payable": true
    },
    {
      "inputs": [
        {
          "internalType": "uint256",
          "name": "tokenId",
          "type": "uint256"
        }
      ],
      "name": "cancelSale",
      "outputs": [],
      "stateMutability": "nonpayable",
      "type": "function"
    },
    {
      "inputs": [
        {
          "internalType": "uint256",
          "name": "tokenId",
          "type": "uint256"
        }
      ],
      "name": "createMarketSale",
      "outputs": [],
      "stateMutability": "payable",
      "type": "function",
      "payable": true
    },
    {
      "inputs": [
        {
          "internalType": "uint256",
          "name": "tokenId",
          "type": "uint256"
        },
        {
          "internalType": "address",
          "name": "recipient",
          "type": "address"
        }
      ],
      "name": "donateToken",
      "outputs": [],
      "stateMutability": "nonpayable",
      "type": "function"
    },
    {
      "inputs": [],
      "name": "fetchMarketItems",
      "outputs": [
        {
          "components": [
            {
              "internalType": "uint256",
              "name": "tokenId",
              "type": "uint256"
            },
            {
              "internalType": "address payable",
              "name": "seller",
              "type": "address"
            },
            {
              "internalType": "address payable",
              "name": "owner",
              "type": "address"
            },
            {
              "internalType": "uint256",
              "name": "price",
              "type": "uint256"
            },
            {
              "internalType": "bool",
              "name": "sold",
              "type": "bool"
            },
            {
              "internalType": "bytes32",
              "name": "hash",
              "type": "bytes32"
            }
          ],
          "internalType": "struct NFTMarketplace.MarketItem[]",
          "name": "",
          "type": "tuple[]"
        }
      ],
      "stateMutability": "view",
      "type": "function",
      "constant": true
    },
    {
      "inputs": [],
      "name": "fetchMyNFTs",
      "outputs": [
        {
          "components": [
            {
              "internalType": "uint256",
              "name": "tokenId",
              "type": "uint256"
            },
            {
              "internalType": "address payable",
              "name": "seller",
              "type": "address"
            },
            {
              "internalType": "address payable",
              "name": "owner",
              "type": "address"
            },
            {
              "internalType": "uint256",
              "name": "price",
              "type": "uint256"
            },
            {
              "internalType": "bool",
              "name": "sold",
              "type": "bool"
            },
            {
              "internalType": "bytes32",
              "name": "hash",
              "type": "bytes32"
            }
          ],
          "internalType": "struct NFTMarketplace.MarketItem[]",
          "name": "",
          "type": "tuple[]"
        }
      ],
      "stateMutability": "view",
      "type": "function",
      "constant": true
    },
    {
      "inputs": [],
      "name": "fetchItemsListed",
      "outputs": [
        {
          "components": [
            {
              "internalType": "uint256",
              "name": "tokenId",
              "type": "uint256"
            },
            {
              "internalType": "address payable",
              "name": "seller",
              "type": "address"
            },
            {
              "internalType": "address payable",
              "name": "owner",
              "type": "address"
            },
            {
              "internalType": "uint256",
              "name": "price",
              "type": "uint256"
            },
            {
              "internalType": "bool",
              "name": "sold",
              "type": "bool"
            },
            {
              "internalType": "bytes32",
              "name": "hash",
              "type": "bytes32"
            }
          ],
          "internalType": "struct NFTMarketplace.MarketItem[]",
          "name": "",
          "type": "tuple[]"
        }
      ],
      "stateMutability": "view",
      "type": "function",
      "constant": true
    },
    {
      "inputs": [
        {
          "internalType": "uint256",
          "name": "tokenId",
          "type": "uint256"
        }
      ],
      "name": "getMarketItem",
      "outputs": [
        {
          "components": [
            {
              "internalType": "uint256",
              "name": "tokenId",
              "type": "uint256"
            },
            {
              "internalType": "address payable",
              "name": "seller",
              "type": "address"
            },
            {
              "internalType": "address payable",
              "name": "owner",
              "type": "address"
            },
            {
              "internalType": "uint256",
              "name": "price",
              "type": "uint256"
            },
            {
              "internalType": "bool",
              "name": "sold",
              "type": "bool"
            },
            {
              "internalType": "bytes32",
              "name": "hash",
              "type": "bytes32"
            }
          ],
          "internalType": "struct NFTMarketplace.MarketItem",
          "name": "",
          "type": "tuple"
        }
      ],
      "stateMutability": "view",
      "type": "function",
      "constant": true
    },
    {
      "inputs": [],
      "name": "getAllDigitalAssets",
      "outputs": [
        {
          "components": [
            {
              "internalType": "uint256",
              "name": "tokenId",
              "type": "uint256"
            },
            {
              "internalType": "address payable",
              "name": "seller",
              "type": "address"
            },
            {
              "internalType": "address payable",
              "name": "owner",
              "type": "address"
            },
            {
              "internalType": "uint256",
              "name": "price",
              "type": "uint256"
            },
            {
              "internalType": "bool",
              "name": "sold",
              "type": "bool"
            },
            {
              "internalType": "bytes32",
              "name": "hash",
              "type": "bytes32"
            }
          ],
          "internalType": "struct NFTMarketplace.MarketItem[]",
          "name": "",
          "type": "tuple[]"
        }
      ],
      "stateMutability": "view",
      "type": "function",
      "constant": true
    },
    {
      "inputs": [],
      "name": "getTokenIdCounter",
      "outputs": [
        {
          "internalType": "uint256",
          "name": "",
          "type": "uint256"
        }
      ],
      "stateMutability": "view",
      "type": "function",
      "constant": true
    },
    {
      "inputs": [],
      "name": "getItemsSoldCounter",
      "outputs": [
        {
          "internalType": "uint256",
          "name": "",
          "type": "uint256"
        }
      ],
      "stateMutability": "view",
      "type": "function",
      "constant": true
    },
    {
      "inputs": [
        {
          "internalType": "uint256",
          "name": "tokenId",
          "type": "uint256"
        }
      ],
      "name": "getCertificateHash",
      "outputs": [
        {
          "internalType": "bytes32",
          "name": "",
          "type": "bytes32"
        }
      ],
      "stateMutability": "view",
      "type": "function",
      "constant": true
    }
  ],
  "bytecode": "0x608060405264e8d4a510006009553480156200001a57600080fd5b50604080518082018252601081526f4d657461766572736520546f6b656e7360801b6020808301918252835180850190945260048452631351551560e21b9084015281519192916200006f91600091620000a0565b50805162000085906001906020840190620000a0565b5050600a80546001600160a01b031916331790555062000183565b828054620000ae9062000146565b90600052602060002090601f016020900481019282620000d257600085556200011d565b82601f10620000ed57805160ff19168380011785556200011d565b828001600101855582156200011d579182015b828111156200011d57825182559160200191906001019062000100565b506200012b9291506200012f565b5090565b5b808211156200012b576000815560010162000130565b600181811c908216806200015b57607f821691505b602082108114156200017d57634e487b7160e01b600052602260045260246000fd5b50919050565b61291c80620001936000396000f3fe6080604052600436106101c25760003560e01c806370a08231116100f7578063be9af53611610095578063e219fc7511610064578063e219fc75146104d8578063e6195dfb146104eb578063e985e9c514610500578063f05b24f81461052057600080fd5b8063be9af53614610463578063c7be7a4914610476578063c87b56dd146104a3578063dbfd4b98146104c357600080fd5b8063aaecc36e116100d1578063aaecc36e146103fb578063ae677aa314610410578063b88d4fde14610423578063bd94b0051461044357600080fd5b806370a08231146103a657806395d89b41146103c6578063a22cb465146103db57600080fd5b806321c290d91161016457806345f8fa801161013e57806345f8fa801461032e5780634fd0e0ae146103435780636352211e146103735780636bef03381461039357600080fd5b806321c290d9146102ce57806323b872dd146102ee57806342842e0e1461030e57600080fd5b8063095ea7b3116101a0578063095ea7b3146102565780630f08efe01461027857806312e855851461029a578063202e3740146102b957600080fd5b806301ffc9a7146101c757806306fdde03146101fc578063081812fc1461021e575b600080fd5b3480156101d357600080fd5b506101e76101e2366004612288565b610540565b60405190151581526020015b60405180910390f35b34801561020857600080fd5b50610211610592565b6040516101f391906122fd565b34801561022a57600080fd5b5061023e610239366004612310565b610624565b6040516001600160a01b0390911681526020016101f3565b34801561026257600080fd5b50610276610271366004612345565b61064b565b005b34801561028457600080fd5b5061028d610766565b6040516101f391906123b9565b3480156102a657600080fd5b506009545b6040519081526020016101f3565b3480156102c557600080fd5b5061028d6108e8565b3480156102da57600080fd5b506102766102e9366004612407565b610aa8565b3480156102fa57600080fd5b50610276610309366004612433565b610bdd565b34801561031a57600080fd5b50610276610329366004612433565b610c0e565b34801561033a57600080fd5b5061028d610c29565b34801561034f57600080fd5b506102ab61035e366004612310565b6000908152600b602052604090206005015490565b34801561037f57600080fd5b5061023e61038e366004612310565b610de9565b6102ab6103a13660046124fb565b610e49565b3480156103b257600080fd5b506102ab6103c136600461255d565b610f17565b3480156103d257600080fd5b50610211610f9d565b3480156103e757600080fd5b506102766103f6366004612578565b610fac565b34801561040757600080fd5b5061028d610fb7565b61027661041e366004612310565b6110dc565b34801561042f57600080fd5b5061027661043e3660046125b4565b6111d4565b34801561044f57600080fd5b5061027661045e366004612310565b61120c565b610276610471366004612310565b611323565b34801561048257600080fd5b50610496610491366004612310565b61149d565b6040516101f39190612630565b3480156104af57600080fd5b506102116104be366004612310565b611511565b3480156104cf57600080fd5b506102ab61161a565b6102766104e636600461263e565b61162a565b3480156104f757600080fd5b506102ab611722565b34801561050c57600080fd5b506101e761051b366004612660565b61172d565b34801561052c57600080fd5b506101e761053b366004612310565b61175b565b60006001600160e01b031982166380ac58cd60e01b148061057157506001600160e01b03198216635b5e139f60e01b145b8061058c57506301ffc9a760e01b6001600160e01b03198316145b92915050565b6060600080546105a19061268a565b80601f01602080910402602001604051908101604052809291908181526020018280546105cd9061268a565b801561061a5780601f106105ef5761010080835404028352916020019161061a565b820191906000526020600020905b8154815290600101906020018083116105fd57829003601f168201915b5050505050905090565b600061062f826117c2565b506000908152600460205260409020546001600160a01b031690565b600061065682610de9565b9050806001600160a01b0316836001600160a01b031614156106c95760405162461bcd60e51b815260206004820152602160248201527f4552433732313a20617070726f76616c20746f2063757272656e74206f776e656044820152603960f91b60648201526084015b60405180910390fd5b336001600160a01b03821614806106e557506106e5813361172d565b6107575760405162461bcd60e51b815260206004820152603e60248201527f4552433732313a20617070726f76652063616c6c6572206973206e6f7420746f60448201527f6b656e206f776e6572206e6f7220617070726f76656420666f7220616c6c000060648201526084016106c0565b6107618383611824565b505050565b6060600061077360075490565b9050600061078060085490565b60075461078d91906126db565b90506000808267ffffffffffffffff8111156107ab576107ab61246f565b6040519080825280602002602001820160405280156107e457816020015b6107d16121a4565b8152602001906001900390816107c95790505b50905060005b848110156108df5730600b60006108028460016126f2565b81526020810191909152604001600020600201546001600160a01b031614156108cd5760006108328260016126f2565b6000818152600b6020908152604091829020825160c0810184528154815260018201546001600160a01b039081169382019390935260028201549092169282019290925260038201546060820152600482015460ff1615156080820152600582015460a0820152855192935090918590879081106108b2576108b261270a565b60209081029190910101526108c86001866126f2565b945050505b806108d781612720565b9150506107ea565b50949350505050565b606060006108f560075490565b905060008060005b838110156109585733600b60006109158460016126f2565b81526020810191909152604001600020600201546001600160a01b03161415610946576109436001846126f2565b92505b8061095081612720565b9150506108fd565b5060008267ffffffffffffffff8111156109745761097461246f565b6040519080825280602002602001820160405280156109ad57816020015b61099a6121a4565b8152602001906001900390816109925790505b50905060005b848110156108df5733600b60006109cb8460016126f2565b81526020810191909152604001600020600201546001600160a01b03161415610a965760006109fb8260016126f2565b6000818152600b6020908152604091829020825160c0810184528154815260018201546001600160a01b039081169382019390935260028201549092169282019290925260038201546060820152600482015460ff1615156080820152600582015460a082015285519293509091859087908110610a7b57610a7b61270a565b6020908102919091010152610a916001866126f2565b945050505b80610aa081612720565b9150506109b3565b6000828152600b60205260409020600201546001600160a01b03163314610b1c5760405162461bcd60e51b815260206004820152602260248201527f4f6e6c792074686520746f6b656e206f776e65722063616e20646f6e617465206044820152611a5d60f21b60648201526084016106c0565b6001600160a01b038116610b835760405162461bcd60e51b815260206004820152602860248201527f526563697069656e7420616464726573732063616e6e6f74206265207a65726f604482015267206164647265737360c01b60648201526084016106c0565b6000828152600b602052604090206002810180546001600160a01b0384166001600160a01b031991821617909155600180830180549092169091556004909101805460ff19169091179055610bd9338284611892565b5050565b610be73382611a2e565b610c035760405162461bcd60e51b81526004016106c09061273b565b610761838383611892565b610761838383604051806020016040528060008152506111d4565b60606000610c3660075490565b905060008060005b83811015610c995733600b6000610c568460016126f2565b81526020810191909152604001600020600101546001600160a01b03161415610c8757610c846001846126f2565b92505b80610c9181612720565b915050610c3e565b5060008267ffffffffffffffff811115610cb557610cb561246f565b604051908082528060200260200182016040528015610cee57816020015b610cdb6121a4565b815260200190600190039081610cd35790505b50905060005b848110156108df5733600b6000610d0c8460016126f2565b81526020810191909152604001600020600101546001600160a01b03161415610dd7576000610d3c8260016126f2565b6000818152600b6020908152604091829020825160c0810184528154815260018201546001600160a01b039081169382019390935260028201549092169282019290925260038201546060820152600482015460ff1615156080820152600582015460a082015285519293509091859087908110610dbc57610dbc61270a565b6020908102919091010152610dd26001866126f2565b945050505b80610de181612720565b915050610cf4565b6000818152600260205260408120546001600160a01b03168061058c5760405162461bcd60e51b8152602060048201526018602482015277115490cdcc8c4e881a5b9d985b1a59081d1bdad95b88125160421b60448201526064016106c0565b6000610e548261175b565b15610ec75760405162461bcd60e51b815260206004820152603760248201527f45737465206861736820796120657374c3a1207265676973747261646f20706160448201527f7261206f74726f2061637469766f206469676974616c2e00000000000000000060648201526084016106c0565b610ed5600780546001019055565b6000610ee060075490565b9050610eec3382611a8c565b610ef68186611bce565b610f01818585611c68565b610f0f600880546001019055565b949350505050565b60006001600160a01b038216610f815760405162461bcd60e51b815260206004820152602960248201527f4552433732313a2061646472657373207a65726f206973206e6f7420612076616044820152683634b21037bbb732b960b91b60648201526084016106c0565b506001600160a01b031660009081526003602052604090205490565b6060600180546105a19061268a565b610bd9338383611dcc565b60606000610fc460075490565b905060008167ffffffffffffffff811115610fe157610fe161246f565b60405190808252806020026020018201604052801561101a57816020015b6110076121a4565b815260200190600190039081610fff5790505b50905060005b828110156110d55760006110358260016126f2565b6000818152600b6020908152604091829020825160c0810184528154815260018201546001600160a01b039081169382019390935260028201549092169282019290925260038201546060820152600482015460ff1615156080820152600582015460a0820152855192935090918590859081106110b5576110b561270a565b6020026020010181905250505080806110cd90612720565b915050611020565b5092915050565b600a546001600160a01b0316331461115c5760405162461bcd60e51b815260206004820152603a60248201527f6f6e6c79206f776e6572206f6620746865206d61726b6574706c61636520636160448201527f6e206368616e676520746865206c697374696e6720707269636500000000000060648201526084016106c0565b600a546001600160a01b031633146111cf5760405162461bcd60e51b815260206004820152603060248201527f4f6e6c79206d61726b6574706c616365206f776e65722063616e20757064617460448201526f32903634b9ba34b73390383934b1b29760811b60648201526084016106c0565b600955565b6111de3383611a2e565b6111fa5760405162461bcd60e51b81526004016106c09061273b565b61120684848484611e9b565b50505050565b6000818152600b6020526040902060018101546001600160a01b031633146112825760405162461bcd60e51b815260206004820152602360248201527f4f6e6c79207468652073656c6c65722063616e2063616e63656c207468652073604482015262195b1b60ea1b60648201526084016106c0565b600481015460ff16156112d75760405162461bcd60e51b815260206004820152601a60248201527f4974656d2068617320616c7265616479206265656e20736f6c6400000000000060448201526064016106c0565b600181810180546002840180546001600160a01b0383166001600160a01b03199182161790915560048501805460ff191685179055169055600880549091019055610bd9303384611892565b6000818152600b60205260409020600301543481146113ac576040805162461bcd60e51b81526020600482015260248101919091527f506c65617365207375626d6974207468652061736b696e67207072696365206960448201527f6e206f7264657220746f20636f6d706c6574652074686520707572636861736560648201526084016106c0565b6000828152600b602052604090206002810180546001600160a01b03191633179055600401805460ff191660011790556113ea600880546001019055565b6113f5303384611892565b600a546009546040516001600160a01b039092169181156108fc0291906000818181858888f19350505050158015611431573d6000803e3d6000fd5b506000828152600b60205260408082206001015490516001600160a01b03909116913480156108fc02929091818181858888f1935050505015801561147a573d6000803e3d6000fd5b50506000908152600b6020526040902060010180546001600160a01b0319169055565b6114a56121a4565b506000908152600b6020908152604091829020825160c0810184528154815260018201546001600160a01b039081169382019390935260028201549092169282019290925260038201546060820152600482015460ff161515608082015260059091015460a082015290565b606061151c826117c2565b600082815260066020526040812080546115359061268a565b80601f01602080910402602001604051908101604052809291908181526020018280546115619061268a565b80156115ae5780601f10611583576101008083540402835291602001916115ae565b820191906000526020600020905b81548152906001019060200180831161159157829003601f168201915b5050505050905060006115cc60408051602081019091526000815290565b90508051600014156115df575092915050565b8151156116115780826040516020016115f9929190612789565b60405160208183030381529060405292505050919050565b610f0f84611ece565b600061162560075490565b905090565b6000828152600b60205260409020600201546001600160a01b031633146116a65760405162461bcd60e51b815260206004820152602a60248201527f4f6e6c79206974656d206f776e65722063616e20706572666f726d20746869736044820152691037b832b930ba34b7b760b11b60648201526084016106c0565b60095434146116c75760405162461bcd60e51b81526004016106c0906127b8565b6000828152600b6020526040902060048101805460ff19169055600381018290556001810180546001600160a01b0319908116331790915560029091018054909116301790556117176008611f42565b610bd9333084611892565b600061162560085490565b6001600160a01b03918216600090815260056020908152604080832093909416825291909152205460ff1690565b60008061176760075490565b905060005b818110156117b85783600b60006117848460016126f2565b81526020019081526020016000206005015414156117a6575060019392505050565b806117b081612720565b91505061176c565b5060009392505050565b6000818152600260205260409020546001600160a01b03166118215760405162461bcd60e51b8152602060048201526018602482015277115490cdcc8c4e881a5b9d985b1a59081d1bdad95b88125160421b60448201526064016106c0565b50565b600081815260046020526040902080546001600160a01b0319166001600160a01b038416908117909155819061185982610de9565b6001600160a01b03167f8c5be1e5ebec7d5bd14f71427d1e84f3dd0314c0f7b2291e5b200ac8c7c3b92560405160405180910390a45050565b826001600160a01b03166118a582610de9565b6001600160a01b0316146119095760405162461bcd60e51b815260206004820152602560248201527f4552433732313a207472616e736665722066726f6d20696e636f72726563742060448201526437bbb732b960d91b60648201526084016106c0565b6001600160a01b03821661196b5760405162461bcd60e51b8152602060048201526024808201527f4552433732313a207472616e7366657220746f20746865207a65726f206164646044820152637265737360e01b60648201526084016106c0565b611976600082611824565b6001600160a01b038316600090815260036020526040812080546001929061199f9084906126db565b90915550506001600160a01b03821660009081526003602052604081208054600192906119cd9084906126f2565b909155505060008181526002602052604080822080546001600160a01b0319166001600160a01b0386811691821790925591518493918716917fddf252ad1be2c89b69c2b068fc378daa952ba7f163c4a11628f55a4df523b3ef91a4505050565b600080611a3a83610de9565b9050806001600160a01b0316846001600160a01b03161480611a615750611a61818561172d565b80610f0f5750836001600160a01b0316611a7a84610624565b6001600160a01b031614949350505050565b6001600160a01b038216611ae25760405162461bcd60e51b815260206004820181905260248201527f4552433732313a206d696e7420746f20746865207a65726f206164647265737360448201526064016106c0565b6000818152600260205260409020546001600160a01b031615611b475760405162461bcd60e51b815260206004820152601c60248201527f4552433732313a20746f6b656e20616c7265616479206d696e7465640000000060448201526064016106c0565b6001600160a01b0382166000908152600360205260408120805460019290611b709084906126f2565b909155505060008181526002602052604080822080546001600160a01b0319166001600160a01b03861690811790915590518392907fddf252ad1be2c89b69c2b068fc378daa952ba7f163c4a11628f55a4df523b3ef908290a45050565b6000828152600260205260409020546001600160a01b0316611c495760405162461bcd60e51b815260206004820152602e60248201527f45524337323155524953746f726167653a2055524920736574206f66206e6f6e60448201526d32bc34b9ba32b73a103a37b5b2b760911b60648201526084016106c0565b60008281526006602090815260409091208251610761928401906121d9565b60008211611cb85760405162461bcd60e51b815260206004820152601c60248201527f5072696365206d757374206265206174206c656173742031207765690000000060448201526064016106c0565b6009543414611cd95760405162461bcd60e51b81526004016106c0906127b8565b6040805160c081018252848152600060208083018281523384860181815260608087018a8152608080890188815260a0808b018d81528f8b52600b8a528c8b209b518c5597516001808d0180546001600160a01b03199081166001600160a01b0394851617909155975160028e018054909916921691909117909655925160038b01555160048a01805460ff191691151591909117905594516005909801979097558751958652938501919091529483018790529082019390935291820183905284917f7ba16635f43596d533d8dfb85bf6f58ad1197eee53cea4fa440a86039f212b39910160405180910390a2505050565b816001600160a01b0316836001600160a01b03161415611e2e5760405162461bcd60e51b815260206004820152601960248201527f4552433732313a20617070726f766520746f2063616c6c65720000000000000060448201526064016106c0565b6001600160a01b03838116600081815260056020908152604080832094871680845294825291829020805460ff191686151590811790915591519182527f17307eab39ab6107e8899845ad3d59bd9653f200f220920489ca2b5937696c31910160405180910390a3505050565b611ea6848484611892565b611eb284848484611f99565b6112065760405162461bcd60e51b81526004016106c0906127fc565b6060611ed9826117c2565b6000611ef060408051602081019091526000815290565b90506000815111611f105760405180602001604052806000815250611f3b565b80611f1a846120a6565b604051602001611f2b929190612789565b6040516020818303038152906040525b9392505050565b805480611f915760405162461bcd60e51b815260206004820152601b60248201527f436f756e7465723a2064656372656d656e74206f766572666c6f77000000000060448201526064016106c0565b600019019055565b60006001600160a01b0384163b1561209b57604051630a85bd0160e11b81526001600160a01b0385169063150b7a0290611fdd90339089908890889060040161284e565b602060405180830381600087803b158015611ff757600080fd5b505af1925050508015612027575060408051601f3d908101601f191682019092526120249181019061288b565b60015b612081573d808015612055576040519150601f19603f3d011682016040523d82523d6000602084013e61205a565b606091505b5080516120795760405162461bcd60e51b81526004016106c0906127fc565b805181602001fd5b6001600160e01b031916630a85bd0160e11b149050610f0f565b506001949350505050565b6060816120ca5750506040805180820190915260018152600360fc1b602082015290565b8160005b81156120f457806120de81612720565b91506120ed9050600a836128be565b91506120ce565b60008167ffffffffffffffff81111561210f5761210f61246f565b6040519080825280601f01601f191660200182016040528015612139576020820181803683370190505b5090505b8415610f0f5761214e6001836126db565b915061215b600a866128d2565b6121669060306126f2565b60f81b81838151811061217b5761217b61270a565b60200101906001600160f81b031916908160001a90535061219d600a866128be565b945061213d565b6040805160c081018252600080825260208201819052918101829052606081018290526080810182905260a081019190915290565b8280546121e59061268a565b90600052602060002090601f016020900481019282612207576000855561224d565b82601f1061222057805160ff191683800117855561224d565b8280016001018555821561224d579182015b8281111561224d578251825591602001919060010190612232565b5061225992915061225d565b5090565b5b80821115612259576000815560010161225e565b6001600160e01b03198116811461182157600080fd5b60006020828403121561229a57600080fd5b8135611f3b81612272565b60005b838110156122c05781810151838201526020016122a8565b838111156112065750506000910152565b600081518084526122e98160208601602086016122a5565b601f01601f19169290920160200192915050565b602081526000611f3b60208301846122d1565b60006020828403121561232257600080fd5b5035919050565b80356001600160a01b038116811461234057600080fd5b919050565b6000806040838503121561235857600080fd5b61236183612329565b946020939093013593505050565b80518252602081015160018060a01b03808216602085015280604084015116604085015250506060810151606083015260808101511515608083015260a081015160a08301525050565b6020808252825182820181905260009190848201906040850190845b818110156123fb576123e883855161236f565b9284019260c092909201916001016123d5565b50909695505050505050565b6000806040838503121561241a57600080fd5b8235915061242a60208401612329565b90509250929050565b60008060006060848603121561244857600080fd5b61245184612329565b925061245f60208501612329565b9150604084013590509250925092565b634e487b7160e01b600052604160045260246000fd5b600067ffffffffffffffff808411156124a0576124a061246f565b604051601f8501601f19908116603f011681019082821181831017156124c8576124c861246f565b816040528093508581528686860111156124e157600080fd5b858560208301376000602087830101525050509392505050565b60008060006060848603121561251057600080fd5b833567ffffffffffffffff81111561252757600080fd5b8401601f8101861361253857600080fd5b61254786823560208401612485565b9660208601359650604090950135949350505050565b60006020828403121561256f57600080fd5b611f3b82612329565b6000806040838503121561258b57600080fd5b61259483612329565b9150602083013580151581146125a957600080fd5b809150509250929050565b600080600080608085870312156125ca57600080fd5b6125d385612329565b93506125e160208601612329565b925060408501359150606085013567ffffffffffffffff81111561260457600080fd5b8501601f8101871361261557600080fd5b61262487823560208401612485565b91505092959194509250565b60c0810161058c828461236f565b6000806040838503121561265157600080fd5b50508035926020909101359150565b6000806040838503121561267357600080fd5b61267c83612329565b915061242a60208401612329565b600181811c9082168061269e57607f821691505b602082108114156126bf57634e487b7160e01b600052602260045260246000fd5b50919050565b634e487b7160e01b600052601160045260246000fd5b6000828210156126ed576126ed6126c5565b500390565b60008219821115612705576127056126c5565b500190565b634e487b7160e01b600052603260045260246000fd5b6000600019821415612734576127346126c5565b5060010190565b6020808252602e908201527f4552433732313a2063616c6c6572206973206e6f7420746f6b656e206f776e6560408201526d1c881b9bdc88185c1c1c9bdd995960921b606082015260800190565b6000835161279b8184602088016122a5565b8351908301906127af8183602088016122a5565b01949350505050565b60208082526024908201527f5072696365206d75737420626520657175616c20746f206c697374696e6720706040820152637269636560e01b606082015260800190565b60208082526032908201527f4552433732313a207472616e7366657220746f206e6f6e20455243373231526560408201527131b2b4bb32b91034b6b83632b6b2b73a32b960711b606082015260800190565b6001600160a01b0385811682528416602082015260408101839052608060608201819052600090612881908301846122d1565b9695505050505050565b60006020828403121561289d57600080fd5b8151611f3b81612272565b634e487b7160e01b600052601260045260246000fd5b6000826128cd576128cd6128a8565b500490565b6000826128e1576128e16128a8565b50069056fea26469706673582212206a14dddea25f2e772c04e82f1c40b7c5e86ac949af52b2a2b06ce00e2d391cba64736f6c63430008090033",
  "immutableReferences": {},
  "source": "// SPDX-License-Identifier: MIT\r\npragma solidity ^0.8.4;\r\n\r\nimport \"@openzeppelin/contracts/utils/Counters.sol\";\r\nimport \"@openzeppelin/contracts/token/ERC721/extensions/ERC721URIStorage.sol\";\r\nimport \"@openzeppelin/contracts/token/ERC721/ERC721.sol\";\r\n\r\nimport \"hardhat/console.sol\";\r\n\r\ncontract NFTMarketplace is ERC721URIStorage {\r\n    using Counters for Counters.Counter;\r\n    Counters.Counter private _tokenIds;\r\n    Counters.Counter private _itemsSold;\r\n\r\n    uint256 listingPrice = 0.000001 ether;\r\n    address payable owner;\r\n\r\n    mapping(uint256 => MarketItem) private idToMarketItem;\r\n\r\n    struct MarketItem {\r\n        uint256 tokenId;\r\n        address payable seller;\r\n        address payable owner;\r\n        uint256 price;\r\n        bool sold;\r\n        bytes32 hash; // Nuevo campo para almacenar el hash de autenticidad\r\n    }\r\n\r\n    event MarketItemCreated(\r\n        uint256 indexed tokenId,\r\n        address seller,\r\n        address owner,\r\n        uint256 price,\r\n        bool sold,\r\n        bytes32 hash // Nuevo campo para registrar el hash de autenticidad en el evento\r\n    );\r\n\r\n    modifier onlyOwner() {\r\n        require(\r\n            msg.sender == owner,\r\n            \"only owner of the marketplace can change the listing price\"\r\n        );\r\n        _;\r\n    }\r\n\r\n    constructor() ERC721(\"Metaverse Tokens\", \"METT\") {\r\n        owner = payable(msg.sender);\r\n    }\r\n\r\n    /* Updates the listing price of the contract */\r\n    function updateListingPrice(uint256 _listingPrice)\r\n        public\r\n        payable\r\n        onlyOwner\r\n    {\r\n        require(\r\n            owner == msg.sender,\r\n            \"Only marketplace owner can update listing price.\"\r\n        );\r\n        listingPrice = _listingPrice;\r\n    }\r\n\r\n    /* Returns the listing price of the contract */\r\n    function getListingPrice() public view returns (uint256) {\r\n        return listingPrice;\r\n    }\r\n\r\n    // Crear token de activo digital\r\n    function createToken(string memory tokenURI, uint256 price, bytes32 hash)\r\n        public\r\n        payable\r\n        returns (uint256)\r\n    {\r\n        require(!isHashRegistered(hash), unicode\"Este hash ya est registrado para otro activo digital.\");\r\n\r\n        _tokenIds.increment();\r\n        uint256 newTokenId = _tokenIds.current();\r\n\r\n        _mint(msg.sender, newTokenId);\r\n        _setTokenURI(newTokenId, tokenURI);\r\n        createMarketItem(newTokenId, price, hash); // Llamamos `createMarketItem` con el hash\r\n        _itemsSold.increment();\r\n        return newTokenId;\r\n    }\r\n\r\n    // Crear activo digital\r\n    function createMarketItem(uint256 tokenId, uint256 price, bytes32 hash) private {\r\n        require(price > 0, \"Price must be at least 1 wei\");\r\n        require(\r\n            msg.value == listingPrice,\r\n            \"Price must be equal to listing price\"\r\n        );\r\n\r\n        idToMarketItem[tokenId] = MarketItem(\r\n            tokenId,\r\n            payable(address(0)),\r\n            payable(msg.sender),\r\n            price,\r\n            false,\r\n            hash // Almacenamos el hash en el struct\r\n        );\r\n\r\n        // _transfer(msg.sender, address(this), tokenId);\r\n        emit MarketItemCreated(\r\n            tokenId,\r\n            payable(address(0)),\r\n            payable(msg.sender),\r\n            price,\r\n            true,\r\n            hash // Emitimos el evento con el hash\r\n        );\r\n    }\r\n\r\n    // Nueva funcin para verificar si un hash ya est registrado\r\n    function isHashRegistered(bytes32 hash) public view returns (bool) {\r\n        uint256 totalItemCount = _tokenIds.current();\r\n        for (uint256 i = 0; i < totalItemCount; i++) {\r\n            if (idToMarketItem[i + 1].hash == hash) {\r\n                return true; // Hash ya registrado\r\n            }\r\n        }\r\n        return false; // Hash no encontrado\r\n    }\r\n\r\n    // Listar activo digital en el mercado\r\n    function resellToken(uint256 tokenId, uint256 price) public payable {\r\n        require(\r\n            idToMarketItem[tokenId].owner == msg.sender,\r\n            \"Only item owner can perform this operation\"\r\n        );\r\n        require(\r\n            msg.value == listingPrice,\r\n            \"Price must be equal to listing price\"\r\n        );\r\n        idToMarketItem[tokenId].sold = false;\r\n        idToMarketItem[tokenId].price = price;\r\n        idToMarketItem[tokenId].seller = payable(msg.sender);\r\n        idToMarketItem[tokenId].owner = payable(address(this));\r\n        _itemsSold.decrement();\r\n\r\n        _transfer(msg.sender, address(this), tokenId);\r\n    }\r\n\r\n    // Eliminar activo digital del mercado\r\n    function cancelSale(uint256 tokenId) public {\r\n        MarketItem storage item = idToMarketItem[tokenId];\r\n        require(item.seller == msg.sender, \"Only the seller can cancel the sell\");\r\n        require(!item.sold, \"Item has already been sold\");\r\n\r\n        item.owner = item.seller;\r\n        item.sold = true;\r\n        item.seller = payable(address(0));\r\n        _itemsSold.increment();\r\n\r\n        _transfer(address(this), msg.sender, tokenId);\r\n    }\r\n\r\n    // Comprar activo digital del mercado\r\n    function createMarketSale(uint256 tokenId) public payable {\r\n        uint256 price = idToMarketItem[tokenId].price;\r\n        require(\r\n            msg.value == price,\r\n            \"Please submit the asking price in order to complete the purchase\"\r\n        );\r\n        idToMarketItem[tokenId].owner = payable(msg.sender);\r\n        idToMarketItem[tokenId].sold = true;\r\n        _itemsSold.increment();\r\n        _transfer(address(this), msg.sender, tokenId);\r\n        payable(owner).transfer(listingPrice);\r\n        payable(idToMarketItem[tokenId].seller).transfer(msg.value);\r\n        idToMarketItem[tokenId].seller = payable(address(0));\r\n    }\r\n\r\n    // Transferir activo digital a otro usuario\r\n    function donateToken(uint256 tokenId, address recipient) public {\r\n        require(idToMarketItem[tokenId].owner == msg.sender, \"Only the token owner can donate it\");\r\n        require(recipient != address(0), \"Recipient address cannot be zero address\");\r\n\r\n        idToMarketItem[tokenId].owner = payable(recipient);\r\n        idToMarketItem[tokenId].seller = payable(address(0));\r\n        idToMarketItem[tokenId].sold = true;\r\n\r\n        _transfer(msg.sender, recipient, tokenId);\r\n    }\r\n\r\n    // Devolver la lista de activos digitales a la venta en el mercado\r\n    function fetchMarketItems() public view returns (MarketItem[] memory) {\r\n        uint256 itemCount = _tokenIds.current();\r\n        uint256 unsoldItemCount = _tokenIds.current() - _itemsSold.current();\r\n        uint256 currentIndex = 0;\r\n\r\n        MarketItem[] memory items = new MarketItem[](unsoldItemCount);\r\n        for (uint256 i = 0; i < itemCount; i++) {\r\n            if (idToMarketItem[i + 1].owner == address(this)) {\r\n                uint256 currentId = i + 1;\r\n                MarketItem storage currentItem = idToMarketItem[currentId];\r\n                items[currentIndex] = currentItem;\r\n                currentIndex += 1;\r\n            }\r\n        }\r\n        return items;\r\n    }\r\n\r\n    // Devolver la lista de activos digitales del usuario\r\n    function fetchMyNFTs() public view returns (MarketItem[] memory) {\r\n        uint256 totalItemCount = _tokenIds.current();\r\n        uint256 itemCount = 0;\r\n        uint256 currentIndex = 0;\r\n\r\n        for (uint256 i = 0; i < totalItemCount; i++) {\r\n            if (idToMarketItem[i + 1].owner == msg.sender) {\r\n                itemCount += 1;\r\n            }\r\n        }\r\n\r\n        MarketItem[] memory items = new MarketItem[](itemCount);\r\n        for (uint256 i = 0; i < totalItemCount; i++) {\r\n            if (idToMarketItem[i + 1].owner == msg.sender) {\r\n                uint256 currentId = i + 1;\r\n                MarketItem storage currentItem = idToMarketItem[currentId];\r\n                items[currentIndex] = currentItem;\r\n                currentIndex += 1;\r\n            }\r\n        }\r\n        return items;\r\n    }\r\n\r\n    // Devolver la lista de activos digitales del usuario a la venta\r\n    function fetchItemsListed() public view returns (MarketItem[] memory) {\r\n        uint256 totalItemCount = _tokenIds.current();\r\n        uint256 itemCount = 0;\r\n        uint256 currentIndex = 0;\r\n\r\n        for (uint256 i = 0; i < totalItemCount; i++) {\r\n            if (idToMarketItem[i + 1].seller == msg.sender) {\r\n                itemCount += 1;\r\n            }\r\n        }\r\n\r\n        MarketItem[] memory items = new MarketItem[](itemCount);\r\n        for (uint256 i = 0; i < totalItemCount; i++) {\r\n            if (idToMarketItem[i + 1].seller == msg.sender) {\r\n                uint256 currentId = i + 1;\r\n                MarketItem storage currentItem = idToMarketItem[currentId];\r\n                items[currentIndex] = currentItem;\r\n                currentIndex += 1;\r\n            }\r\n        }\r\n        return items;\r\n    }\r\n\r\n    // Aadir esta funcin en tu contrato NFTMarketplace\r\n    function getMarketItem(uint256 tokenId) public view returns (MarketItem memory) {\r\n        return idToMarketItem[tokenId];\r\n    }\r\n\r\n    // 1. Obtener todos los activos digitales registrados\r\n    function getAllDigitalAssets() public view returns (MarketItem[] memory) {\r\n        uint256 totalItemCount = _tokenIds.current();\r\n        MarketItem[] memory items = new MarketItem[](totalItemCount);\r\n\r\n        for (uint256 i = 0; i < totalItemCount; i++) {\r\n            uint256 currentId = i + 1;\r\n            MarketItem storage currentItem = idToMarketItem[currentId];\r\n            items[i] = currentItem;\r\n        }\r\n        return items;\r\n    }\r\n\r\n    // 2. Obtener el valor del contador de IDs de tokens\r\n    function getTokenIdCounter() public view returns (uint256) {\r\n        return _tokenIds.current();\r\n    }\r\n\r\n    // 3. Obtener el valor del contador de tems vendidos\r\n    function getItemsSoldCounter() public view returns (uint256) {\r\n        return _itemsSold.current();\r\n    }\r\n\r\n    function getCertificateHash(uint256 tokenId) public view returns (bytes32) {\r\n        return idToMarketItem[tokenId].hash;\r\n    }\r\n\r\n}\r\n",
  "sourcePath": "C:\\Users\\jeant\\Desktop\\yo-implementaciones\\plataforma-gestion-activos-digitales\\contracts\\NFTMarketplace.sol",
  "compiler": {
    "name": "solc",
    "version": "0.8.9+commit.e5eed63a.Emscripten.clang"
  },
  "schemaVersion": "3.4.16",
  "updatedAt": "2024-11-03T00:56:09.444Z",
  "networkType": "ethereum",
  "devdoc": {
    "kind": "dev",
    "methods": {
      "approve(address,uint256)": {
        "details": "See {IERC721-approve}."
      },
      "balanceOf(address)": {
        "details": "See {IERC721-balanceOf}."
      },
      "getApproved(uint256)": {
        "details": "See {IERC721-getApproved}."
      },
      "isApprovedForAll(address,address)": {
        "details": "See {IERC721-isApprovedForAll}."
      },
      "name()": {
        "details": "See {IERC721Metadata-name}."
      },
      "ownerOf(uint256)": {
        "details": "See {IERC721-ownerOf}."
      },
      "safeTransferFrom(address,address,uint256)": {
        "details": "See {IERC721-safeTransferFrom}."
      },
      "safeTransferFrom(address,address,uint256,bytes)": {
        "details": "See {IERC721-safeTransferFrom}."
      },
      "setApprovalForAll(address,bool)": {
        "details": "See {IERC721-setApprovalForAll}."
      },
      "supportsInterface(bytes4)": {
        "details": "See {IERC165-supportsInterface}."
      },
      "symbol()": {
        "details": "See {IERC721Metadata-symbol}."
      },
      "tokenURI(uint256)": {
        "details": "See {IERC721Metadata-tokenURI}."
      },
      "transferFrom(address,address,uint256)": {
        "details": "See {IERC721-transferFrom}."
      }
    },
    "version": 1
  },
  "userdoc": {
    "kind": "user",
    "methods": {},
    "version": 1
  }
}